:020000040800F2
:10000000D82800209D010008650500081905000892
:10001000610500082D030008A70C0008000000007F
:1000200000000000000000000000000005010008C2
:10003000FD03000800000000490100081D08000839
:10004000B7010008B7010008B7010008B7010008B0
:10005000B7010008B7010008B7010008B7010008A0
:10006000B7010008B7010008B7010008B701000890
:10007000B7010008B7010008B7010008B701000880
:10008000B7010008B7010008B7010008B701000870
:10009000B7010008B7010008B7010008B701000860
:1000A000B7010008B7010008B7010008B701000850
:1000B0008D080008A5080008B7010008B70100086E
:1000C000B7010008B7010008B7010008B701000830
:1000D000B7010008850A0008B7010008B701000849
:1000E000B7010008B7010008B7010008DFF810D019
:1000F00000F0B0F80048004741100008AFF300805E
:10010000D8280020224B19680868B0E8F00F80F367
:100110000988BFF36F8F4FF0000080F311884EF015
:100120000D0E70470000000006480068006880F36C
:10013000088862B661B6BFF34F8FBFF36F8F00DFE1
:1001400000BF00BF08ED00E0EFF30980BFF36F8F41
:100150000F4B1A6820E9F00F106008B54FF05000FF
:1001600080F31188BFF34F8FBFF36F8F02F00CFB4A
:100170004FF0000080F31188BDE808401968086856
:10018000B0E8F00F80F30988BFF36F8F704700BFAE
:1001900048000020EFF305807047000006488047C4
:1001A00006480047FEE7FEE7FEE7FEE7FEE7FEE75C
:1001B000FEE7FEE7FEE7FEE72D080008ED00000879
:1001C00040EA01039B0703D009E008C9121F08C0D9
:1001D000042AFAD203E011F8013B00F8013B521E59
:1001E000F9D27047D2B201E000F8012B491EFBD2D0
:1001F00070470022F6E710B513460A460446194632
:10020000FFF7F0FF204610BD421C10F8011B00292B
:10021000FBD1801A7047034611F8012B00F8012B1F
:10022000002AF9D11846704730B50B460146002028
:100230002022012409E021FA02F59D4205D303FAA8
:1002400002F5491B04FA02F52844151EA2F1010229
:10025000F1DC30BD064C074D06E0E06840F00103DC
:1002600094E8070098471034AC42F6D3FFF742FFFA
:100270000836000828360008704700001CB501F059
:1002800081FE1648012100238022CDE9001014A12F
:10029000164802F087FE1648052100238022CDE98A
:1002A000001014A1164802F07DFE1648012100231B
:1002B0008022CDE9001014A1164802F073FE164802
:1002C000052100234FF48072CDE9001013A11648D8
:1002D00002F068FE01F09AFE1CBD00000000002044
:1002E0006C6564305F7461736B000000211000085E
:1002F000040000204B45595F7461736B00000000DF
:100300001D0500080C0000204F4C45445F746173CC
:100310006B000000ED050008080000204350555F09
:100320007461736B000000003103000800BFFEE73A
:10033000E4B02AE04FF4C8716846FFF75AFF6846F8
:1003400002F074F811A000F0B1FC1C4800F0AEFC03
:1003500069461BA000F0AAFC0CA000F0A7FC4FF41B
:10036000C8716846FFF745FF684601F0F5FF15487C
:1003700000F09CFC694612A000F098FC12A000F06E
:1003800095FC4FF47A7001F071FFD3E72D2D2D2DE0
:100390002D2D2D2D2D2D2D2D2D2D2D2D2D2D2D2D8D
:1003A0002D2D2D2D2D2D2D2D2D2D2D2D2D2D2D2D7D
:1003B0002D2D2D2D2D2D2D2D2D0D0A005435000800
:1003C00025730000B43500082D2D2D2D2D2D2D2D3C
:1003D0002D2D2D2D2D2D2D2D2D2D2D2D2D2D2D2D4D
:1003E0002D2D2D2D2D2D2D2D2D2D2D2D2D2D2D2D3D
:1003F0002D2D2D2D2D0D0A0A0000000070472DE92E
:10040000F04102460025002600200023002400279A
:1004100091F803C00CF00F0591F803C00CF0100C1C
:10042000BCF1000F03D091F802C04CEA050591F829
:1004300000C0BCF1000F31D0146800202BE04FF059
:10044000010C0CFA00F3B1F800C00CEA03069E425E
:1004500020D183004FF00F0C0CFA03F7BC4305FAD0
:1004600003FC4CEA040491F803C0BCF1280F06D148
:100470004FF0010C0CFA00FCC2F814C00AE091F82D
:1004800003C0BCF1480F05D14FF0010C0CFA00FC81
:10049000C2F810C0401C0828D1D31460B1F800C0C5
:1004A000BCF1FF0F34DD546800202EE000F1080C91
:1004B0004FF0010808FA0CF3B1F800C00CEA03068B
:1004C0009E4221D183004FF00F0C0CFA03F7BC437E
:1004D00005FA03FC4CEA040491F803C0BCF1280FB0
:1004E00005D100F1080C08FA0CF8C2F8148091F854
:1004F00003C0BCF1480F07D100F1080C4FF0010810
:1005000008FA0CF8C2F81080401C0828CED35460BA
:10051000BDE8F0810161704700BFFEE703E04FF4E2
:10052000FA7001F0A3FEFAE708B50121102000F0EF
:1005300073F84FF40050ADF8000010208DF8030060
:1005400003208DF8020069460448FFF758FF4FF476
:1005500000510248FFF7DEFF08BD00000010014017
:1005600000BFFEE77047000070B5002100230F2296
:10057000C47804B3154C246804F4E064C4F5E06462
:10058000210AC1F10403CA40447804FA03F18478D3
:100590001440214309010E4C0678A155047804F05B
:1005A0001F050124AC4005786D11AD0005F1E02573
:1005B000C5F8004109E0047804F01F050124AC40AF
:1005C000044D0678761145F8264070BD0CED00E02C
:1005D00000E400E080E100E002490143024A1160CA
:1005E000704700000000FA050CED00E003E04FF456
:1005F000FA7001F03BFEFAE729B1064AD2690243DC
:10060000044BDA6104E0034AD2698243014BDA61A8
:10061000704700000010024029B1064A9269024367
:10062000044B9A6104E0034A92698243014B9A6148
:10063000704700000010024030B500210022002465
:1006400000232D4D6D6805F00C0121B1042905D062
:10065000082923D105E0294D056022E0274D0560DA
:100660001FE0254D6D6805F47012234D6D6805F48B
:100670008034022505EB92421CB9214D554305609B
:100680000BE01D4D6D6805F400351DB11C4D554343
:10069000056002E0194D5543056002E0174D056005
:1006A00000BF00BF144D6D6805F0F0010909154D3C
:1006B0006B5C0568DD4045600F4D6D6805F4E061D9
:1006C000090A104D6B5C4568DD4085600A4D6D6818
:1006D00005F46051C90A0B4D6B5C4568DD40C5608F
:1006E000054D6D6805F44041890B074D6B5CC5688D
:1006F000B5FBF3F5056130BD0010024000127A0031
:1007000000093D00340000204400002010B500F036
:1007100001F810BD0CB5002001900090334800682E
:1007200040F480303149086000BF3048006800F470
:10073000003000900198401C0190009818B9019871
:10074000B0F5A06FF1D12948006800F4003010B175
:100750000120009001E0002000900098012843D182
:100760002348006840F010002149086008460068EE
:1007700020F0030008600846006840F002000860AE
:100780001A48406819494860084640684860084669
:10079000406840F4806048600846406820F47C105F
:1007A00048600846406840F4E81048600846006821
:1007B00040F08070086000BF0C48006800F00070D6
:1007C0000028F9D00948406820F003000749486034
:1007D0000846406840F00200486000BF0348406897
:1007E00000F00C000828F9D10CBD000000100240F8
:1007F00000200240042808D14FF0E021096941F0AF
:1008000004014FF0E022116107E04FF0E021096997
:1008100021F004014FF0E0221161704710B502F0A1
:10082000F1FB012801D002F073F810BD10B5134898
:10083000006840F00100114908600846406810490E
:1008400008400E494860084600680E4908400B49B8
:1008500008600846006820F4802008600846406868
:1008600020F4FE0048604FF41F008860FFF74EFF41
:100870004FF000600449086010BD00000010024005
:100880000000FFF8FFFFF6FE08ED00E010B50121C3
:10089000880700F05CF818B10121880700F048F8DB
:1008A00010BD000010B50121074800F050F80128E4
:1008B00004D106480068401C044908600121024830
:1008C00000F036F810BD00000004004010000020C9
:1008D0007FB505460C4601210220FFF78DFEADF8DD
:1008E0000850ADF804400020ADF80600ADF80A004D
:1008F00001A90E4800F046F8012211460B4800F00D
:1009000037F80121094800F016F81D208DF8000085
:1009100002208DF8010000208DF8020001208DF8E2
:1009200003006846FFF720FE7FBD00000004004082
:10093000CA430282704721B1028842F0010202805C
:1009400004E002884FF6FE731A400280704730B50B
:100950000246002000230024158A05EA0103958938
:1009600005EA010413B10CB1012000E0002030BD04
:100970001AB183890B43838102E083898B4383818E
:1009800070470000002202881D4B98420ED01D4B7C
:1009900098420BD0B0F1804F08D01B4B984205D045
:1009A0001A4B984202D01A4B984204D14FF68F73DB
:1009B0001A404B881A43174B984207D0164B98425F
:1009C00004D04FF6FF431A40CB881A4302808B882D
:1009D00083850B8803850A4B98420BD0094B9842BC
:1009E00008D00E4B984205D00D4B984202D00D4BCB
:1009F000984201D10B7A038601238382704700005D
:100A0000002C014000340140000400400008004078
:100A1000000C004000100040001400400040014065
:100A200000440140004801407FB505460C460121C5
:100A30000846FFF7E1FDADF80850ADF8044000208E
:100A4000ADF80A00ADF8060001A94FF08040FFF7AD
:100A500099FF012211469007FFF78AFF1C208DF8AD
:100A6000000002208DF8010000208DF80200012016
:100A70008DF803006846FFF777FD01218807FFF72F
:100A80005AFF7FBD10B540F225511D4800F04AF8CD
:100A900010B31B4800F002F9C4B21A48008800F4F1
:100AA0000040C8B91748008800F4804060B10A2CA3
:100AB00003D000201349088020E01248008840F449
:100AC00000401049088019E00D2C06D10D4800881F
:100AD00040F480400B49088010E00A480088C0F3C9
:100AE0000D0009490C5407480088401C054908803E
:100AF00008460088C72801DD0020088010BD0000DE
:100B0000003801401C000020C400002021B182896F
:100B100042F40052828104E082894DF6FF731A404C
:100B20008281704770B50246002400230025002012
:100B300040F66A16B14200D100BFC1F3421501F080
:100B40001F03012606FA03F3012D02D196893340D3
:100B500006E0022D02D1168A334001E0968A334026
:100B60000C12012606FA04F41688344013B10CB1B5
:100B7000012000E0002070BDF0B5034600240026EF
:100B80000025002040F66A17B94200D100BF184680
:100B9000C1F3421401F01F06012707FA06F5012CE4
:100BA00001D10C3004E0022C01D1103000E01430EF
:100BB0001AB107682F43076002E00768AF43076078
:100BC000F0BD00002DE9F04786B005460E46002432
:100BD000A24600BFA1460027B08900B100BF2F4642
:100BE0002C8A4CF6FF700440F08804432C82AC89B8
:100BF0004EF6F3100440B0883189084371890843E8
:100C00000443AC81AC8A4FF6FF400440B0890443F2
:100C1000AC8201A8FFF710FD1F48874202D1DDF822
:100C200010A001E0DDF80CA0A88900F4004040B15C
:100C30000AEBCA0000EB0A1031684900B0FBF1F87A
:100C400007E00AEBCA0000EB0A1031688900B0FB2C
:100C5000F1F86420B8FBF0F004012009642101FBE5
:100C60001089A88900F4004040B1322000EBC9008F
:100C7000B0FBF1F000F00700044308E0322000EB85
:100C800009106421B0FBF1F000F00F0004432C8147
:100C900006B0BDE8F08700000038014001468888B2
:100CA000C0F30800704700BFFEE700000FB4054B1B
:100CB00010B503A9044A029800F02CF810BC5DF8A6
:100CC00014FB000005100008180000200FB4084BAA
:100CD00010B504A902AA039800F01CF8044602A962
:100CE000002000F0F3F8204610BC5DF814FB000073
:100CF000CD0E000802E008C8121F08C1002AFAD170
:100D000070477047002001E001C1121F002AFBD18B
:100D1000704700002DE9FF4F8BB09A460F460546FD
:100D2000002606E025280BD052460D9990476D1CF1
:100D3000761C28780028F5D10FB03046BDE8F08F3A
:100D40000024A0460122604900E0044315F8013F59
:100D5000203B02FA03F00842F7D128782E2817D159
:100D600015F8010F44F004042A280ED06FF02F026A
:100D70002878A0F1300109290AD808EB880102EB94
:100D8000410100EB01086D1CF2E757F8048B6D1C64
:100D9000287869283ED006DC0028CDD063280BD007
:100DA000642804D136E0732810D075284BD0524601
:100DB0000D999047761C85E017F8040B8DF800001C
:100DC00000208DF80100E946012003E057F8049B5C
:100DD0004FF0FF3061074FF0000401D40AE0641CBB
:100DE00044450DDA8442FADB19F804100029F6D1E3
:100DF00006E0641C8442FCDB19F804100029F8D1D9
:100E0000264404E019F8010B52460D999047641EE0
:100E1000F8D257E001CF4FF00A0B002802DA404227
:100E20002D2102E0210504D52B218DF8241001216C
:100E300003E0E10705D02021F7E70DF12009089133
:100E40000CE00021F9E701CF4FF00A0BF9E7594612
:100E5000FFF7EAF901F1300209F8012D0028F6D177
:100E6000ADEB090000F1200B600701D44FF0010841
:100E7000D84502DDA8EB0B0000E0002080460024EE
:100E800006E009A85246005D0D999047641C761C47
:100E900008988442F5DB04E0302052460D999047D3
:100EA000761CB8F10001A8F10108F5DC05E019F89D
:100EB000010B52460D999047761CBBF10001ABF136
:100EC000010BF4DC6D1C34E7092801000A68531C8F
:100ED0000B601070704710B54FF44070FFF77CFB4B
:100EE00000F012F8FFF720FB4FF4E13000F054FF60
:100EF00041F61F4141F28730FFF796FD3B2108463E
:100F0000FFF7E6FC10BD000010B50420FFF772FCEF
:100F1000104800681049B0FBF1F0104908700D4806
:100F200000680D49B0FBF1F44FF47A70444301209E
:100F30000B4908804FF0E020006940F002004FF0BC
:100F4000E021086108464461006940F00100086141
:100F500010BD00002000002040420F0014000020BF
:100F6000160000202DE9F04107463E462EB940F21A
:100F7000FB4216A11AA0FFF799FE1D4800688642A1
:100F800001D100241EE000F0FDFF756901F03EF87C
:100F900018480068854203D017480068854201D18F
:100FA00002240FE01548854205D1B06A08B9032430
:100FB00008E0022406E01248854200D00DB904245E
:100FC00000E001242046BDE8F08100002E2E5C46A2
:100FD00072656552544F535C7461736B732E63007A
:100FE0004572726F723A25732C25640D0A00000059
:100FF000480000204C000020500000209C040020ED
:101000008804002000BF054A128802F04002002A2E
:10101000F9D0C2B2014B1B1D1A8070470038014045
:101020000BE00648006808B9012000E000200349F1
:1010300008604FF4FA7001F019F9F2E7B4012242A6
:10104000012080F3108800BFFFF745FFFFF716F976
:10105000FFF712F901F036FB00BFFEE72DE9F04182
:1010600005460E461C4807681C480068001D00F035
:10107000E3FE50B91948006890F82C100120884010
:1010800017490968814316480160681C38B936B1B0
:1010900012480168091D134800F068FF1AE07C1926
:1010A0000E4800684460BC4207D20C480168091D24
:1010B0000D48006800F040FF0CE008480168091D79
:1010C0000A48006800F038FF09480068844201D2ED
:1010D00007480460BDE8F0815C0000204800002063
:1010E000600000209C040020500000204C000020E4
:1010F0007800002010B5044600F044FF2448006842
:10110000401C234908602348006840B92148046016
:101110000846006801280DD100F0EEF90AE01E48EB
:10112000006838B91B480068C06AE16A884201D883
:101130001848046019480068401C184908600846AF
:101140000068606494F82C100120884014490968F4
:10115000084313490860E16A01EB8101114A02EB7F
:101160008100211D00F002FF00F050FF0A480068D6
:1011700068B108480068C06AE16A884207D24FF047
:10118000805009490860BFF34F8FBFF36F8F10BDC8
:101190005800002048000020640000207400002057
:1011A00060000020CC01002004ED00E010B500F04C
:1011B000E9FE10480068D0B90F4800F0ADFE0F48B6
:1011C00000F0AAFE0C480E4908600C480D49086062
:1011D00000221021052001F0B5FB064908600846F1
:1011E000006820B108A10348006801F003F800F08E
:1011F0000DFF10BD94000020B0040020C4040020A6
:101200008C00002090000020546D725100000000FE
:1012100070B523E001F0B0FA1348006808B9012066
:1012200000E00020054602F079F8BDB900F0AAFE02
:101230000D48C068C468201D00F0FEFD0B48006822
:10124000401E0A4908600A480068401E08490860B4
:1012500000F0DCFE204600F060F800BF04480068A3
:101260000028D7D170BD000088040020580000205D
:101270005400002070B504460D46206C70B1216CFE
:10128000E0680844E0606168E068884201D3206853
:10129000E0602846226CE168FEF792FF70BD2DE900
:1012A000F04104460F4615464FF00008A66B206C2F
:1012B00040B9206860BB606801F06AFF804600208A
:1012C000606025E07DB93946226CA068FEF778FFA2
:1012D000216CA0680844A060D4E90110884217D3AB
:1012E0002068A06014E03946226CE068FEF768FFD1
:1012F000216CE068401AE0602168E068884203D20F
:10130000216C6068401AE060022D01D106B1761EA2
:10131000701CA0634046BDE8F08110B50446206B08
:1013200000F0ACFE204600F0A9FE10BD0146084AC0
:10133000126812680AB9012200E000220A600A68F5
:1013400022B9034A1268D268106800E00020704792
:101350008C00002030B54FF40053174800F007040C
:101360002CB1C01D20F00700134C041B1B1B0246B0
:10137000124C22600024114D6C60D018083820F007
:1013800007000F4C206000240D4D2D686C600C4D43
:101390002D682C601146441A4C60094C24680C607E
:1013A000084D4C682C60084D4C682C604FF0004490
:1013B000064D2C6030BD0000D8040020AC00002099
:1013C000B4000020BC000020B8000020C0000020B5
:1013D00000BFFFF71DFF064800680128F9D94FF04C
:1013E000805004490860BFF34F8FBFF36F8FF0E761
:1013F000CC01002004ED00E02DE9F04106460D4649
:1014000017469846069C0DB9246000E02760E66305
:1014100025640121204601F0B3FB84F850800020B0
:10142000A064BDE8F08100002DE9F05F82460F4620
:1014300090469B460A9E0C9C4FEA8801A522206B91
:10144000FEF7D0FEA8F10100216B01EB800929F025
:10145000070909F0070008B9012000E0002028B9B9
:1014600040F22B321BA120A0FFF720FC002507E053
:10147000795D04F134004155785D00B902E06D1CDE
:10148000102DF5D300BF002143200155202E00D39D
:101490001F26E662E66400202065201D00F049FD5D
:1014A00004F1180000F045FD2461C6F12000A061A0
:1014B000646200206065A06584F85C005A4651466D
:1014C000484600F057FC20600B9808B10B98046068
:1014D000BDE8F09F2E2E5C4672656552544F535CFA
:1014E0007461736B732E63004572726F723A257369
:1014F0002C25640D0A00000010B5002407E004EB61
:1015000084010F4A02EB810000F006FD641C202CD0
:10151000F5D30C4800F000FD0B4800F0FDFC0B4833
:1015200000F0FAFC0A4800F0F7FC0A4800F0F4FC6E
:1015300004480949086004480849086010BD0000D3
:10154000CC0100204C040020600400207404002022
:10155000880400209C0400204C0000205000002043
:1015600010B50146164800E0006803688B42FBD3C3
:101570000246436813448B4204D143684C682344B9
:10158000436001460A464B6813440468A34211D1E4
:101590000C4C03682468A34208D04B680468646854
:1015A00023444B6003681B680B6005E0054B1B6818
:1015B0000B6001E003680B60884200D0016010BD41
:1015C000AC000020B40000202DE9F04104460D4697
:1015D00016461F464FF0000865602461B5420CD8DE
:1015E000F01BA169884202D34FF0010811E0211DD0
:1015F0000948006800F0A0FC0BE0BE4204D2BD42E6
:1016000002D34FF0010804E0211D0448006800F0F7
:1016100093FC4046BDE8F081900000208C00002043
:1016200070B5054600F0AEFCA86B08B9012400E0D7
:10163000002400F0EBFC204670BD70B5054600F0BC
:10164000A1FCA86BE96B884201D1012400E00024D1
:1016500000F0DCFC204670BD2DE9F04707460C4643
:1016600090460026206848B320464168496841609A
:1016700000F1080142688A4202D14168496841602C
:101680004168D1F80C9000BF20464168496841602C
:1016900000F1080142688A4202D14168496841600C
:1016A0004168CD6806EBC60007EB80014346012286
:1016B000284600F015FE761C4D45E5D13046BDE8C4
:1016C000F08700002DE9F3410D460098846C002757
:1016D0002CB940F6CE121AA11EA0FFF7E7FAA06BB4
:1016E000E16B884201D2012000E0002028B940F6D9
:1016F000CF1213A117A0FFF7D9FAA06BE16B8842B4
:101700001BD294F945602A4669462046FFF7C7FD7B
:101710000746701C60B9606A08B9012000E000202B
:1017200050B904F1240001F09FFD28B1012703E026
:10173000701C40B284F8450000BF3846BDE8FC810B
:101740002E2E5C4672656552544F535C71756575FB
:10175000652E63004572726F723A25732C25640DF5
:101760000A000000F8B505460F4613480068C06837
:10177000C468201D00F060FBE069012818D1A06951
:1017800041192B463A462046FFF71EFF80B1002044
:1017900003462A4601460090204601F089FE06468F
:1017A0002EB94FF4027205A10AA0FFF77FFA00BF1D
:1017B0002046616A8847F8BD8C0000202E2E5C46CA
:1017C00072656552544F535C74696D6572732E6314
:1017D000000000004572726F723A25732C25640D6B
:1017E0000A000000F0B587B070E0039800280CDA1A
:1017F00004AE2EB940F2E7223AA140A0FFF756FA14
:10180000D6E90020B168904700BF039800285DDB4F
:10181000059C606908B9012000E0002010B9201D76
:1018200000F00AFB02A800F0C7F8054603980A2852
:101830004AD2DFE800F00905072C2E4506082D2FB7
:1018400000BF00BF00BF00BF0498A2698118034613
:101850002A462046FFF7B8FEC0B12046616A884795
:10186000E069012812D1002000900498A169421873
:1018700000231946204601F01BFE07462FB940F20F
:10188000213218A11DA0FFF711FA00BF1DE000BF13
:101890001BE000BF0498A061A06908B1012000E02E
:1018A000002028B94FF44E720EA114A0FFF7FEF9E4
:1018B000A06941192B462A462046FFF785FE04E021
:1018C000204600F0DBFB00E000BF00BF00231A460B
:1018D00003A90E48006801F06FF8002885D107B011
:1018E000F0BD00002E2E5C4672656552544F535C6D
:1018F00074696D6572732E63000000004572726F2B
:10190000723A25732C25640D0A0000009400002013
:10191000F8B505460C4600F02FFF684600F04CF87D
:101920000646009820BB44B9B54206D801F0F6FC43
:1019300031462846FFF716FF1CE03CB10E48006810
:10194000006808B9012000E000200446A91B2246D7
:101950000A48006800F064FC01F0E0FC50B94FF068
:10196000805007490860BFF34F8FBFF36F8F01E0CE
:1019700001F0D4FCF8BD000090000020940000208D
:1019800004ED00E00A490968096809B9012100E08D
:10199000002121B14FF0FF31064A116006E00449F1
:1019A0000968C968C868034A416811607047000047
:1019B0004C0000207800002070B5044601F032FB96
:1019C000054607480068854204D200F00BF8012064
:1019D000206001E00020206001480560284670BDBD
:1019E0009C0000202DE9F8432DE021480068C068E4
:1019F00005681F480068C068C468201D00F01CFA14
:101A00002046616A8847E06901281CD1A06946190F
:101A1000AE4207D966602461211D1548006800F0B8
:101A20008BFA10E0002003462A460146009020462B
:101A300001F03EFD07462FB940F292320DA113A0EE
:101A4000FFF734F900BF0A480068006808B90120B0
:101A500000E000200028C8D00548D0F800800F48DA
:101A60000068034908600D48C0F80080BDE8F883AD
:101A70008C0000202E2E5C4672656552544F535CDC
:101A800074696D6572732E63000000004572726F99
:101A9000723A25732C25640D0A0000009000002086
:101AA0000246002101E0521C491C1078A528FAD0FA
:101AB000890888B2704700000B480068401C08B9CC
:101AC000012000E0002020B9F42208A112A0FFF7B5
:101AD000EDF800BF502080F31188BFF34F8FBFF3A4
:101AE0006F8F00BF00BFFEE7A00000202E2E5C46D7
:101AF00072656552544F535C706F727461626C65AD
:101B00005C525644535C41524D5F434D335C706FA1
:101B100072742E63000000004572726F723A257372
:101B20002C25640D0A00000008B500BF6846FFF7C9
:101B3000FDFB044620460099FFF7EAFEFFF752FE40
:101B4000F4E770B5044600F01DFA94F945501AE028
:101B5000A06C38B100212046FFF7B4FD88B100F039
:101B6000D5FC0EE0606A08B9012000E0002038B919
:101B700004F1240001F078FB18B100F0C7FC00E08C
:101B800003E0681E45B2002DE2DC00BFFF2084F8B0
:101B9000450000F03BFA00F0F5F994F9445010E0EC
:101BA000206908B9012000E0002048B904F11000C4
:101BB00001F05AFB08B100F0A9FC681E45B200E034
:101BC00001E0002DECDC00BFFF2084F8440000F0B1
:101BD0001DFA70BD70B505460E4631462846FEF723
:101BE0001AFB2846FEF710FB044602E02020285589
:101BF000641C0F2CFAD300202855281970BD000052
:101C00002DE9F04104464FF0000800F0B5FD3E48D4
:101C1000006808B9FFF79EFB3C4800682040002898
:101C20005FD1A4B1083404F0070080B104F00700CC
:101C3000C0F10800044404F0070008B9012000E0E6
:101C4000002020B9BF2232A13BA0FFF72FF8002CC3
:101C500047D03D480068844243D83C4E3046056832
:101C600001E02E462D686868A04202D2286800284C
:101C7000F7D125480068854233D0306800F1080864
:101C8000286830606868001B102813D92F1907F0E6
:101C9000070008B9012000E0002020B9EC221CA1B7
:101CA00025A0FFF703F86868001B78606C60384671
:101CB000FFF756FC244968680968081A2249086039
:101CC0000846006822490968884203D21E48006815
:101CD0001F4908600D49686809680843686000206A
:101CE000286001F01BFB08F0070008B9012000E0A4
:101CF000002028B94FF4967205A10FA0FEF7D6FF79
:101D00004046BDE8F0810000B4000020C000002083
:101D10002E2E5C4672656552544F535C706F727420
:101D200061626C655C4D656D4D616E675C68656197
:101D3000705F342E630000004572726F723A257333
:101D40002C25640D0A000000B8000020AC00002023
:101D5000BC0000200648006830B10549096801F15F
:101D60005000096D491C016001480068704700007F
:101D700048000020001F4FF080730360001F21F017
:101D800001030360001F034B036014380260203816
:101D900070470000B91A000810B586B0044601214A
:101DA00044F20400FEF738FC4FF40070ADF8140064
:101DB00003208DF8160018208DF8170005A91C487F
:101DC000FEF71DFB4FF48060ADF8140004208DF881
:101DD000170005A91648FEF712FB25208DF8000014
:101DE00003208DF801008DF8020001208DF803001A
:101DF0006846FEF7B9FB01940020ADF80800ADF885
:101E00000A00ADF80C00ADF810000C20ADF80E0083
:101E100001A90848FEF7D6FE012240F225510548E7
:101E2000FEF7AAFE01210348FEF770FE06B010BDC2
:101E3000000801400038014001460A69D1E901303B
:101E40009860D1E9010358605068884201D18868E0
:101E50005060002008611068401E106010687047D4
:101E60002DE9F0410546884616460024202700F05B
:101E700083FC2248006880453AD300BF7F1E07EBF1
:101E800087021F4B03EB820104EBC40205EB8200C7
:101E90000122FFF7E1FB0444002FEFD104EBC40162
:101EA00005EB8100022217490968FFF7D5FB0444BE
:101EB00004EBC40105EB8100022213490968FFF716
:101EC000CBFB044404EBC40105EB810004220F4961
:101ED000FFF7C2FB044404EBC40105EB81000322BD
:101EE0000B49FFF7B9FB044416B10A48006830609B
:101EF00001F014FA2046BDE8F081000058000020EF
:101F0000CC0100204C00002050000020880400205C
:101F10009C0400201000002000F1080141604FF0F7
:101F2000FF31816000F10801C160016100210160A1
:101F3000704700210161704710B502460B685C1CB8
:101F40000CB9106907E002F1080000E0406844683D
:101F500024689C42FAD944684C604C68A16088604F
:101F600041600A611468641C146010BD42684A60D4
:101F700093688B60936859609160086103685B1C8B
:101F80000360704710B500BF502080F31188BFF385
:101F90004F8FBFF36F8F00BF0B480068401C0A498A
:101FA00008600846006801280DD108480068C0B2E2
:101FB00008B9012000E0002028B94FF4BD7204A147
:101FC0000EA0FEF773FE10BDA000002004ED00E09F
:101FD0002E2E5C4672656552544F535C706F72745E
:101FE00061626C655C525644535C41524D5F434D97
:101FF000335C706F72742E63000000004572726F64
:10200000723A25732C25640D0A00000010B50B48A8
:10201000006828B940F2811209A114A0FEF746FE1B
:1020200006480068401E054908600846006820B957
:10203000002080F3118800BF00BF10BDA000002069
:102040002E2E5C4672656552544F535C706F7274ED
:1020500061626C655C525644535C41524D5F434D26
:10206000335C706F72742E63000000004572726FF3
:10207000723A25732C25640D0A00000070B50646DF
:102080003546002E35D0083D2C461A49606809684F
:10209000084008B1012000E0002028B94FF4A072E8
:1020A00015A11FA0FEF702FE206808B9012000E07C
:1020B000002028B940F241120FA119A0FEF7F6FD49
:1020C0000C4960680968084098B1206888B90949D6
:1020D000606809688843606000F04EFB14496068DE
:1020E00009680844124908602046FFF739FA01F0F0
:1020F00015F970BDC00000202E2E5C467265655239
:10210000544F535C706F727461626C655C4D656DA9
:102110004D616E675C686561705F342E630000001E
:102120004572726F723A25732C25640D0A00000007
:10213000B8000020064800684FF47A71B0FBF1F057
:10214000401E4FF0E0214861072008617047000001
:102150002000002070B5FEF71DF80546102D11D3A4
:1021600005F1E02090F8F04310480078844201DB4C
:10217000012000E0002028B94FF42A720CA117A01A
:10218000FEF794FD1948006800F4E06018490968FA
:10219000884201D8012000E0002028B94FF42E72B7
:1021A00003A10EA0FEF782FD70BD0000A400002078
:1021B0002E2E5C4672656552544F535C706F72747C
:1021C00061626C655C525644535C41524D5F434DB5
:1021D000335C706F72742E63000000004572726F82
:1021E000723A25732C25640D0A0000000CED00E006
:1021F000A8000020024600200BE0084B53F83030C6
:1022000033B9064B43F8301003EBC0035A6002E0C9
:10221000401C0828F1D300BF704700008C0100204B
:102220002DE9F04105460E4617462C46FFF7AAFE5B
:1022300094F94400401C10B9002084F8440094F93B
:102240004500401C10B9002084F84500FFF7DEFE71
:10225000A06B28B93A46314604F1240000F086F913
:102260002046FFF76EFCBDE8F081000070B5044623
:102270000025ACB10F48006808B9012000E000203B
:1022800028B940F2CF420CA110A0FEF70FFD00F0DC
:1022900073FA00212046FEF7E1FE01F03FF8054603
:1022A0003DB94FF080500D490860BFF34F8FBFF329
:1022B0006F8F70BD800000202E2E5C4672656552C7
:1022C000544F535C7461736B732E63004572726F6D
:1022D000723A25732C25640D0A00000004ED00E01D
:1022E0002DE9F04107460C4690461E4617B919489D
:1022F000006800E038460546256005F1340060605E
:10230000E86A2061286BE061686CA060207B03288C
:1023100007D100F031FAA86A08B10220207300F05A
:10232000FDFFE86C6061686DA061052E01D0267329
:1023300003E03846FEF716FE2073B8F1000F04D014
:10234000286BFFF7ADFB208401E000202084BDE86E
:10235000F081000048000020FEB5054600202870EE
:102360002B48006802902A49096801EBC1018800E6
:10237000FFF746FC0446002C48D06A4620460299E6
:10238000FFF76EFD029064210098B0FBF1F0009021
:102390000098002837D00020019030E0019800EB31
:1023A000C00004EB800080690099B0FBF1F6019851
:1023B00000EBC00004EB800041682846FFF70AFCF0
:1023C00005465EB1019800EBC00004EB8000334687
:1023D00010A182692846FEF779FC09E0019800EB1C
:1023E000C00004EB80000EA182692846FEF76EFC57
:1023F0002846FDF709FF05440198401C0190DDE9DE
:1024000001018842CAD32046FFF738FEFEBD000016
:10241000580000200925750909257525250D0A0094
:1024200009257509093C3125250D0A007FB50546AA
:10243000002028703048006803902F49096801EB9C
:10244000C1018800FFF7DCFB0446002C53D00022BA
:1024500020460399FFF704FD03900020029043E01B
:10246000029800EBC00004EB8000007B012806D03E
:10247000022806D0032806D0042808D105E05226F9
:1024800007E0422605E0532603E0442601E000264B
:1024900000BF00BF029800EBC00004EB8000416861
:1024A0002846FFF797FB0546029800EBC00004EBB7
:1024B00080008068029901EBC10104EB8101098C65
:1024C000CDE90010029800EBC00004EB800032461A
:1024D0000AA103692846FEF7F9FB2846FDF794FE9A
:1024E00005440298401C0290DDE902018842B7D3FE
:1024F0002046FFF7C3FD7FBD580000200925630972
:1025000025750925750925750D0A00000120014969
:10251000086070476C00002070B504460D462CB969
:1025200040F6063207A10CA0FEF7C0FB0E4801687A
:1025300018312046FFF700FD01212846FEF78EFDE9
:1025400070BD00002E2E5C4672656552544F535C80
:102550007461736B732E63004572726F723A2573E8
:102560002C25640D0A0000004800002070B50546C7
:102570000E4614462DB940F6313209A10DA0FEF7E2
:1025800095FB1048016818312846FFF7EFFC0CB1A5
:102590004FF0FF3621463046FEF760FD70BD00006B
:1025A0002E2E5C4672656552544F535C7461736B9A
:1025B000732E63004572726F723A25732C25640D79
:1025C0000A0000004800002070B505462C46002D8A
:1025D0004BD02649E06A0968C96A884245D2A06999
:1025E00000F0004028B921480068C06AC0F120000E
:1025F000A061E16A01EB81011D4A02EB8101606982
:10260000884201D1012000E0002050B3201DFFF7D7
:1026100013FC78B9E06A00EB8000154951F82000FE
:1026200040B994F82C100120884012490968814370
:10263000104801600D480068C06AE06294F82C10F0
:10264000012088400B49096808430A490860E16A8B
:1026500001EB8101064A02EB8100211DFFF786FC98
:1026600003E002480068C06AE06270BD48000020D4
:10267000CC0100206000002010B504462CB940F6C3
:10268000C13205A109A0FEF711FB0C4800682060CB
:102690000B480068606010BD2E2E5C467265655266
:1026A000544F535C7461736B732E63004572726F89
:1026B000723A25732C25640D0A000000700000207A
:1026C0005C0000201CB51B4800210B468222CDE98E
:1026D000001019A11A4800F065FC0446012C02D133
:1026E00000F0ACFE0446012C17D100BF502080F34F
:1026F0001188BFF34F8FBFF36F8F00BF4FF0FF30D4
:102700001049086001201049086000200F49086046
:102710000F49086000F0ACF80BE0601C08B1012024
:1027200000E0002028B940F284720AA10EA0FEF752
:10273000BDFA1CBD7C00002049444C45000000004F
:10274000D113000878000020640000205C00002005
:10275000100000202E2E5C4672656552544F535C6B
:102760007461736B732E63004572726F723A2573D6
:102770002C25640D0A00000002480068401C014935
:10278000086070478000002010B52848006818B124
:1027900001202749086047E00020254908602548B6
:1027A000006825490860084600682449096888428D
:1027B0000BD92349096801F15400496D1E4A12687A
:1027C0001E4B1B68D21A114401601B4800681B494C
:1027D00008601C480068B0FA80F0C0F11F0404EBE8
:1027E0008400194951F8200008B1012000E00020C0
:1027F00028B940F6F62215A119A0FEF757FA04EB06
:102800008401114A02EB810041684968416000F18E
:10281000080142688A4202D14168496841604168C2
:10282000C968074A116000BF10BD00008000002089
:102830006C00002010000020880000208400002090
:102840004800002060000020CC0100202E2E5C46B5
:1028500072656552544F535C7461736B732E6300E1
:102860004572726F723A25732C25640D0A000000C0
:102870001CB52248014609780191FF2102461170DA
:102880000146097800919DF8001001F050011C4AA2
:10289000117007211B4A116009E01A490968491E95
:1028A000184A11609DF800104906090E00919DF824
:1028B000001001F080018029EFD012490968090257
:1028C000104A11601146098801F4E06111600B4A59
:1028D000019911700C48006840F470000A490860C2
:1028E0000846006840F070400860FFF723FC0020B5
:1028F00006490860FDF718FC00201CBD00E400E05C
:10290000A4000020A800002020ED00E0A00000208E
:1029100010B500BF502080F31188BFF34F8FBFF375
:102920006F8F00BF00F084FB18B14FF08050044956
:10293000086000BF002080F3118800BF10BD0000B8
:1029400004ED00E02DE9F84305460E4690460DB132
:10295000012000E0002028B94FF4C4720DA112A09C
:10296000FEF7A4F90EB9002701E005FB06F707F111
:102970005400FFF745F9044644B104F154094346B5
:102980004A46314628460094FEF736FD2046BDE80B
:10299000F88300002E2E5C4672656552544F535CDE
:1029A00071756575652E63004572726F723A257395
:1029B0002C25640D0A0000002DE9FF4782B0054672
:1029C0000E461F464FF0000A2C462CB940F2DC425E
:1029D00061A166A0FEF76AF90EB9206C08B9012062
:1029E00000E0002028B940F2DD425BA15FA0FEF7C5
:1029F0005DF900F007FB08B9049808B9012000E070
:102A0000002028B94FF49C6253A158A0FEF74EF95C
:102A100000BFFFF7B7FAD4F83890B9F1000F3DD0F6
:102A2000D4F80C8031462046FEF724FCDFB9A9F12A
:102A30000100A063206810B9FFF78CF9606020697D
:102A400008B9012000E0002010BB04F1100000F0E4
:102A50000BFCE8B14FF0805048490860BFF34F8F3E
:102A6000BFF36F8F14E0C4F80C80606A08B90120CE
:102A700000E0002060B904F1240000F0F5FB38B15B
:102A80004FF080503D490860BFF34F8FBFF36F8F09
:102A9000FFF7BCFA012006B0BDE8F087049818B92A
:102AA000FFF7B4FA0020F6E7BAF1000F04D1684648
:102AB000FFF7E2FD4FF0010AFFF7A8FAFFF75CFE0F
:102AC000FFF760FA94F94400401C10B9002084F824
:102AD000440094F94500401C10B9002084F84500DA
:102AE000FFF794FA04A9684600F00CFA40BB2046B0
:102AF000FEF796FDF0B1206830B9FFF743FA606841
:102B0000FFF762FDFFF782FA04F124000499FFF752
:102B100003FD2046FFF715F800F000FC00287FF4C5
:102B200078AF4FF0805015490860BFF34F8FBFF367
:102B30006F8F6EE72046FFF704F800F0EFFB68E7C1
:102B40002046FEF7FEFF00F0E9FB2046FEF768FD99
:102B50000028EED000209EE72E2E5C46726565525E
:102B6000544F535C71756575652E63004572726FC5
:102B7000723A25732C25640D0A00000004ED00E074
:102B800070B505460E462C462CB940F21B121EA10C
:102B900022A0FEF78BF8FFF7F5F9D4E90F122068B1
:102BA00001FB020060600020A0632068A060E06B71
:102BB000401E226C216800FB0210E060FF2084F8B8
:102BC000440084F845009EB9206908B9012000E05E
:102BD0000020A8B904F1100000F046FB80B14FF0CE
:102BE000805012490860BFF34F8FBFF36F8F07E02B
:102BF00004F11000FFF790F904F12400FFF78CF9BD
:102C0000FFF704FA012070BD2E2E5C4672656552F6
:102C1000544F535C71756575652E63004572726F14
:102C2000723A25732C25640D0A00000004ED00E0C3
:102C30002DE9FF4383B0064688461D464FF0000944
:102C400034462CB940F2D92260A165A0FEF72EF8D7
:102C5000B8F1000F01D1206C08B9012000E000207C
:102C600028B940F2DA2259A15DA0FEF71FF8022D23
:102C700002D1E06B012801D1012000E0002028B939
:102C800040F2DB2251A156A0FEF710F800F0BAF98D
:102C900008B9059808B9012000E0002028B940F2E1
:102CA000DE224AA14EA0FEF701F800BFFFF76AF945
:102CB000A06BE16B884201D3022D38D12A464146F0
:102CC0002046FEF7ECFA0746A06C68B1294620467C
:102CD000FEF7F8FC28B34FF0805045490860BFF379
:102CE0004F8FBFF36F8F1CE0606A08B9012000E0CE
:102CF000002068B904F1240000F0B6FA88B14FF062
:102D000080503B490860BFF34F8FBFF36F8F08E0DF
:102D10003FB14FF0805036490860BFF34F8FBFF38B
:102D20006F8FFFF773F9012007B0BDE8F0830598B6
:102D300018B9FFF76BF90020F6E7B9F1000F04D1DD
:102D400001A8FFF799FC4FF00109FFF75FF9FFF7C2
:102D500013FDFFF717F994F94400401C10B9002047
:102D600084F8440094F94500401C10B9002084F810
:102D70004500FFF74BF905A901A800F0C3F8F0B929
:102D80002046FEF75AFCA0B104F110000599FFF7A8
:102D9000C3FB2046FEF7D5FE00F0C0FA002885D11F
:102DA0004FF0805012490860BFF34F8FBFF36F8F11
:102DB0007CE72046FEF7C5FE00F0B0FA76E7204635
:102DC000FEF7BFFE00F0AAFA0020ADE72E2E5C460B
:102DD00072656552544F535C71756575652E63005D
:102DE0004572726F723A25732C25640D0A0000003B
:102DF00004ED00E02DE9F05F80468A4615461E4648
:102E000044462CB940F29F3235A13AA0FDF74EFF5F
:102E1000BAF1000F01D1206C08B9012000E00020B8
:102E200028B94FF468722EA132A0FDF73FFF022EA1
:102E300002D1E06B012801D1012000E0002028B977
:102E400040F2A13226A12BA0FDF730FFFFF782F957
:102E500000BF5021EFF3118081F31188BFF34F8F32
:102E6000BFF36F8F00BF0746A06BE16B884201D3B1
:102E7000022E2BD194F945B0324651462046FEF73A
:102E80000EFA0BF10100C8B9A06C40B131462046E2
:102E9000FEF718FCB8B1B5B10120286013E0606AF4
:102EA00008B9012000E0002068B904F1240000F016
:102EB000DBF940B13DB10120286004E00BF10100D5
:102EC00040B284F845004FF0010901E04FF00009DD
:102ED00000BF87F3118800BF4846BDE8F09F00009F
:102EE0002E2E5C4672656552544F535C7175657544
:102EF000652E63004572726F723A25732C25640D3E
:102F00000A0000002DE9F04104460D462CB940F6B8
:102F1000CB3219A11DA0FDF7C9FE2DB940F6CC3268
:102F200015A11AA0FDF7C2FEFFF72CF81B48076891
:102F30002868401C08B9002619E01949206809686A
:102F4000884204D06068B84201D801260FE060686A
:102F5000381A2968884209D228686168791A401AA3
:102F600028602046FFF788FB002600E00126FFF7D7
:102F70004DF83046BDE8F0812E2E5C4672656552F4
:102F8000544F535C7461736B732E63004572726FA0
:102F9000723A25732C25640D0A0000005C000020A5
:102FA000700000202DE9FF4F85B080468946174606
:102FB000DDE912ABB800FEF723FE064656B16020ED
:102FC000FEF71EFE04460CB1266304E03046FFF710
:102FD00055F800E000247CB10020CDE900ABCDE93C
:102FE00002403A4649464046089BFEF71DFA2046F5
:102FF000FEF780F8012501E04FF0FF35284609B0C3
:10300000BDE8F08F0549096809B9012005E00449C8
:10301000096809B9022000E0002070476400002020
:103020008000002001490868704700005C00002013
:103030002DE9F0414FF0000841480068002872D1A6
:1030400040480068451C3F480560EDB93E480068AF
:10305000006808B9012000E0002028B940F6D91224
:103060003AA13FA0FDF722FE3748076840480068B4
:10307000354908603E4807603E480068401C3D49AD
:103080000860FEF77FFC00BF3B48006885423CD3E8
:1030900000BF2D480068006808B9012000E000204A
:1030A00020B14FF0FF30344908602DE02648006819
:1030B000C068C4686668B54202D22F48066023E043
:1030C000201DFEF7B9FEA06A18B104F11800FEF742
:1030D000B3FE94F82C100120884028490968084361
:1030E00026490860E16A01EB8101254A02EB810073
:1030F000211DFEF73BFF2349E06A0968C96A88423F
:10310000C7D34FF00108C4E700BF1E480068C06A7B
:1031100000EB80001A4951F82000012801D94FF036
:10312000010805E0FFE718480068401C16490860E0
:103130001648006808B14FF001084046BDE8F0812C
:10314000800000205C0000204C0000202E2E5C46F9
:1031500072656552544F535C7461736B732E6300D8
:103160004572726F723A25732C25640D0A000000B7
:103170005000002070000020780000206000002037
:10318000CC01002048000020680000206C000020D6
:1031900070B505462C460026002D4BD02648006809
:1031A000844201D1012000E0002028B940F6C66227
:1031B00022A127A0FDF77AFD206D28B940F6C8624C
:1031C0001EA123A0FDF772FD206D401E2065E16C5D
:1031D000E06A88422ED0206D60BB201DFEF72CFED9
:1031E00078B9E06A00EB80001D4951F8200040B931
:1031F00094F82C10012088401A4909688143194825
:103200000160E06CE062E06AC0F12000A06194F827
:103210002C100120884013490968084311490860AF
:10322000E16A01EB81010E4A02EB8100211DFEF7EC
:103230009DFE0126304670BD480000202E2E5C46C3
:1032400072656552544F535C7461736B732E6300E7
:103250004572726F723A25732C25640D0A000000C6
:10326000CC0100206000002070B50646F068C468FC
:103270002CB940F661321AA11EA0FDF717FD04F12A
:103280001800FEF7D9FD1F480068A8B9201DFEF7F9
:10329000D3FD94F82C10012088401B49096808438D
:1032A00019490860E16A01EB8101184A02EB8100CB
:1032B000211DFEF75BFE04E004F118011448FEF73F
:1032C00055FE1449E06A0968C96A884204D9012593
:1032D00001201149086000E00025284670BD00006B
:1032E0002E2E5C4672656552544F535C7461736B4D
:1032F000732E63004572726F723A25732C25640D2C
:103300000A0000008000002060000020CC010020A6
:1033100074040020480000206C00002070B50024D8
:1033200000263448006828B94FF4FD6232A137A066
:10333000FDF7BCFCFEF726FE2E480068401E2D4916
:1033400008600846006800284FD13448006800280B
:103350004BD024E03248C068C46804F11800FEF77E
:103360006BFD201DFEF768FD94F82C1001208840AD
:103370002C49096808432B490860E16A01EB810187
:10338000294A02EB8100211DFEF7F0FD2749E06A82
:103390000968C96A884202D301202549086020488B
:1033A000006808B9012000E000200028D2D00CB14C
:1033B000FEF7E8FA1F48056865B100BFFFF738FE61
:1033C00010B101201A4908606D1E002DF6D10020B1
:1033D000184908601648006838B1012630071649B8
:1033E0000860BFF34F8FBFF36F8FFEF70FFE3046BD
:1033F00070BD0000800000202E2E5C467265655274
:10340000544F535C7461736B732E63004572726F1B
:10341000723A25732C25640D0A0000005800002024
:103420007404002060000020CC010020480000202F
:103430006C0000206800002004ED00E01CB50024B2
:10344000FDF7B4FE0B48006858B10B481F2100235C
:103450004FF48272CDE9001008A10A48FFF7A2FDDF
:1034600004462CB940F2331207A10DA0FDF71EFC53
:1034700020461CBD9400002098000020546D72204E
:1034800053766300291B00082E2E5C467265655238
:10349000544F535C74696D6572732E6300000000B5
:1034A0004572726F723A25732C25640D0A00000074
:1034B0002DE9FF4704460D4616461F46DDF83080CD
:1034C0004FF000092CB94FF4D37217A11CA0FDF7DF
:1034D000EDFB1F48006810B3009501960294062D7D
:1034E00015DAFFF78FFD022808D10023424669460E
:1034F00017480068FFF79CFB814610E000231A463E
:10350000694613480068FFF793FB814607E00023F4
:103510003A4669460E480068FFF76CFC814648460B
:1035200004B0BDE8F08700002E2E5C46726565523F
:10353000544F535C74696D6572732E630000000014
:103540004572726F723A25732C25640D0A000000D3
:1035500094000020C8CECEF1C3FB202020202020E4
:10356000202020202020202020202020202020205B
:10357000202020C8CECEF1D7B4CCAC2020202020F3
:10358000202020202020D3C5CFC8BCB6202020205A
:103590002020202020202020CAA3D3E0D5BB20203B
:1035A00020202020202020C8CECEF1D0F2BAC50D98
:1035B0000A000000C8CECEF1C3FB2020202020202E
:1035C00020202020202020202020202020202020FB
:1035D00020202020202020D4CBD0D0BCC6CAFD2063
:1035E00020202020202020202020202020202020DB
:1035F000202020202020202020202020CAB9D3C332
:10360000C2CA0D0A00000000283600080000002091
:10361000C4000000F40C0008EC360008C4000020D0
:1036200014280000040D0008000000000000000045
:10363000000000000000000000000000000000008A
:10364000000000000000000000A24A04000000008A
:103650000000000001020304060708090000000042
:103660000102030401020304060708090204060814
:10367000000000000000000000000000000000004A
:10368000000000000000000000000000000000003A
:10369000000000000000000000000000000000002A
:1036A000000000000000000000000000000000001A
:1036B000000000000000000000000000000000000A
:1036C0000000000000000000AAAAAAAA0000000052
:1036D00000000000000000000000000000000000EA
:0C36E000000000000000000000000000DE
:040000050800019D51
:00000001FF
